{
  "_format": "hh-sol-artifact-1",
  "contractName": "SecureDocs",
  "sourceName": "contracts/SecureDocs.sol",
  "abi": [
    {
      "anonymous": false,
      "inputs": [
        {
          "indexed": true,
          "internalType": "uint256",
          "name": "docId",
          "type": "uint256"
        },
        {
          "indexed": true,
          "internalType": "address",
          "name": "to",
          "type": "address"
        },
        {
          "indexed": false,
          "internalType": "bytes",
          "name": "encKey",
          "type": "bytes"
        }
      ],
      "name": "AccessGranted",
      "type": "event"
    },
    {
      "anonymous": false,
      "inputs": [
        {
          "indexed": true,
          "internalType": "uint256",
          "name": "docId",
          "type": "uint256"
        },
        {
          "indexed": true,
          "internalType": "address",
          "name": "from",
          "type": "address"
        }
      ],
      "name": "AccessRevoked",
      "type": "event"
    },
    {
      "anonymous": false,
      "inputs": [
        {
          "indexed": true,
          "internalType": "uint256",
          "name": "docId",
          "type": "uint256"
        },
        {
          "indexed": true,
          "internalType": "address",
          "name": "owner",
          "type": "address"
        },
        {
          "indexed": false,
          "internalType": "string",
          "name": "ipfsCid",
          "type": "string"
        },
        {
          "indexed": false,
          "internalType": "bytes32",
          "name": "docHash",
          "type": "bytes32"
        },
        {
          "indexed": false,
          "internalType": "uint256",
          "name": "timestamp",
          "type": "uint256"
        }
      ],
      "name": "DocumentRegistered",
      "type": "event"
    },
    {
      "anonymous": false,
      "inputs": [
        {
          "indexed": true,
          "internalType": "uint256",
          "name": "docId",
          "type": "uint256"
        },
        {
          "indexed": true,
          "internalType": "address",
          "name": "caller",
          "type": "address"
        },
        {
          "indexed": false,
          "internalType": "bool",
          "name": "ok",
          "type": "bool"
        },
        {
          "indexed": false,
          "internalType": "bytes32",
          "name": "providedHash",
          "type": "bytes32"
        },
        {
          "indexed": false,
          "internalType": "uint256",
          "name": "timestamp",
          "type": "uint256"
        }
      ],
      "name": "IntegrityChecked",
      "type": "event"
    },
    {
      "inputs": [
        {
          "internalType": "uint256",
          "name": "docId",
          "type": "uint256"
        },
        {
          "internalType": "bytes32",
          "name": "providedHash",
          "type": "bytes32"
        }
      ],
      "name": "checkIntegrity",
      "outputs": [
        {
          "internalType": "bool",
          "name": "ok",
          "type": "bool"
        }
      ],
      "stateMutability": "nonpayable",
      "type": "function"
    },
    {
      "inputs": [
        {
          "internalType": "uint256",
          "name": "docId",
          "type": "uint256"
        },
        {
          "internalType": "address",
          "name": "user",
          "type": "address"
        }
      ],
      "name": "getEncryptedKey",
      "outputs": [
        {
          "internalType": "bytes",
          "name": "",
          "type": "bytes"
        }
      ],
      "stateMutability": "view",
      "type": "function"
    },
    {
      "inputs": [
        {
          "internalType": "uint256",
          "name": "docId",
          "type": "uint256"
        }
      ],
      "name": "getMetadata",
      "outputs": [
        {
          "internalType": "address",
          "name": "owner",
          "type": "address"
        },
        {
          "internalType": "string",
          "name": "ipfsCid",
          "type": "string"
        },
        {
          "internalType": "bytes32",
          "name": "docHash",
          "type": "bytes32"
        },
        {
          "internalType": "uint256",
          "name": "createdAt",
          "type": "uint256"
        }
      ],
      "stateMutability": "view",
      "type": "function"
    },
    {
      "inputs": [
        {
          "internalType": "uint256",
          "name": "docId",
          "type": "uint256"
        }
      ],
      "name": "getSharedWith",
      "outputs": [
        {
          "internalType": "address[]",
          "name": "",
          "type": "address[]"
        }
      ],
      "stateMutability": "view",
      "type": "function"
    },
    {
      "inputs": [
        {
          "internalType": "uint256",
          "name": "docId",
          "type": "uint256"
        },
        {
          "internalType": "address",
          "name": "to",
          "type": "address"
        },
        {
          "internalType": "bytes",
          "name": "wrappedKey",
          "type": "bytes"
        }
      ],
      "name": "grantAccess",
      "outputs": [],
      "stateMutability": "nonpayable",
      "type": "function"
    },
    {
      "inputs": [
        {
          "internalType": "uint256",
          "name": "docId",
          "type": "uint256"
        },
        {
          "internalType": "address",
          "name": "user",
          "type": "address"
        }
      ],
      "name": "hasAccess",
      "outputs": [
        {
          "internalType": "bool",
          "name": "",
          "type": "bool"
        }
      ],
      "stateMutability": "view",
      "type": "function"
    },
    {
      "inputs": [
        {
          "internalType": "address",
          "name": "user",
          "type": "address"
        }
      ],
      "name": "listOwnedDocs",
      "outputs": [
        {
          "internalType": "uint256[]",
          "name": "",
          "type": "uint256[]"
        }
      ],
      "stateMutability": "view",
      "type": "function"
    },
    {
      "inputs": [],
      "name": "nextId",
      "outputs": [
        {
          "internalType": "uint256",
          "name": "",
          "type": "uint256"
        }
      ],
      "stateMutability": "view",
      "type": "function"
    },
    {
      "inputs": [
        {
          "internalType": "string",
          "name": "ipfsCid",
          "type": "string"
        },
        {
          "internalType": "bytes32",
          "name": "docHash",
          "type": "bytes32"
        },
        {
          "internalType": "bytes",
          "name": "ownerWrappedKey",
          "type": "bytes"
        }
      ],
      "name": "registerDocument",
      "outputs": [
        {
          "internalType": "uint256",
          "name": "docId",
          "type": "uint256"
        }
      ],
      "stateMutability": "nonpayable",
      "type": "function"
    },
    {
      "inputs": [
        {
          "internalType": "uint256",
          "name": "docId",
          "type": "uint256"
        },
        {
          "internalType": "address",
          "name": "from",
          "type": "address"
        }
      ],
      "name": "revokeAccess",
      "outputs": [],
      "stateMutability": "nonpayable",
      "type": "function"
    }
  ],
  "bytecode": "0x608060405234801561001057600080fd5b50611eb0806100206000396000f3fe608060405234801561001057600080fd5b506004361061009e5760003560e01c8063afb83d0911610066578063afb83d0914610184578063ca2f7186146101a0578063ced14198146101d0578063d9a5ec1b14610200578063f4fc0deb1461021c5761009e565b80633fbcf421146100a357806361b8ce8c146100d3578063629f307d146100f15780636f05335814610121578063a574cea414610151575b600080fd5b6100bd60048036038101906100b8919061100a565b61024c565b6040516100ca9190611065565b60405180910390f35b6100db6102c2565b6040516100e8919061108f565b60405180910390f35b61010b600480360381019061010691906110aa565b6102c8565b60405161011891906111c7565b60405180910390f35b61013b60048036038101906101369190611215565b61036c565b60405161014891906112e5565b60405180910390f35b61016b600480360381019061016691906110aa565b6105ae565b60405161017b949392919061137a565b60405180910390f35b61019e6004803603810190610199919061142b565b610698565b005b6101ba60048036038101906101b5919061149f565b610980565b6040516101c7919061158a565b60405180910390f35b6101ea60048036038101906101e59190611215565b610a17565b6040516101f79190611065565b60405180910390f35b61021a60048036038101906102159190611215565b610a82565b005b61023660048036038101906102319190611602565b610cbd565b604051610243919061108f565b60405180910390f35b60008160016000858152602001908152602001600020600201541490503373ffffffffffffffffffffffffffffffffffffffff16837f7969c0b1e06b191c24b22bc2c42272caa252e04a2399c6865b9b13af39bfd0e68385426040516102b493929190611697565b60405180910390a392915050565b60005481565b60606001600083815260200190815260200160002060060180548060200260200160405190810160405280929190818152602001828054801561036057602002820191906000526020600020905b8160009054906101000a900473ffffffffffffffffffffffffffffffffffffffff1673ffffffffffffffffffffffffffffffffffffffff1681526020019060010190808311610316575b50505050509050919050565b606060006001600085815260200190815260200160002090508060000160009054906101000a900473ffffffffffffffffffffffffffffffffffffffff1673ffffffffffffffffffffffffffffffffffffffff163373ffffffffffffffffffffffffffffffffffffffff16148061040e57508273ffffffffffffffffffffffffffffffffffffffff163373ffffffffffffffffffffffffffffffffffffffff16145b61044d576040517f08c379a00000000000000000000000000000000000000000000000000000000081526004016104449061171a565b60405180910390fd5b8060040160008473ffffffffffffffffffffffffffffffffffffffff1673ffffffffffffffffffffffffffffffffffffffff16815260200190815260200160002060009054906101000a900460ff166104db576040517f08c379a00000000000000000000000000000000000000000000000000000000081526004016104d290611786565b60405180910390fd5b8060050160008473ffffffffffffffffffffffffffffffffffffffff1673ffffffffffffffffffffffffffffffffffffffff1681526020019081526020016000208054610527906117d5565b80601f0160208091040260200160405190810160405280929190818152602001828054610553906117d5565b80156105a05780601f10610575576101008083540402835291602001916105a0565b820191906000526020600020905b81548152906001019060200180831161058357829003601f168201915b505050505091505092915050565b6000606060008060006001600087815260200190815260200160002090508060000160009054906101000a900473ffffffffffffffffffffffffffffffffffffffff169450806001018054610602906117d5565b80601f016020809104026020016040519081016040528092919081815260200182805461062e906117d5565b801561067b5780601f106106505761010080835404028352916020019161067b565b820191906000526020600020905b81548152906001019060200180831161065e57829003601f168201915b505050505093508060020154925080600301549150509193509193565b833373ffffffffffffffffffffffffffffffffffffffff166001600083815260200190815260200160002060000160009054906101000a900473ffffffffffffffffffffffffffffffffffffffff1673ffffffffffffffffffffffffffffffffffffffff161461073d576040517f08c379a000000000000000000000000000000000000000000000000000000000815260040161073490611852565b60405180910390fd5b600073ffffffffffffffffffffffffffffffffffffffff168473ffffffffffffffffffffffffffffffffffffffff16036107ac576040517f08c379a00000000000000000000000000000000000000000000000000000000081526004016107a3906118be565b60405180910390fd5b60006001600087815260200190815260200160002090508060040160008673ffffffffffffffffffffffffffffffffffffffff1673ffffffffffffffffffffffffffffffffffffffff16815260200190815260200160002060009054906101000a900460ff1661087c5780600601859080600181540180825580915050600190039060005260206000200160009091909190916101000a81548173ffffffffffffffffffffffffffffffffffffffff021916908373ffffffffffffffffffffffffffffffffffffffff1602179055505b60018160040160008773ffffffffffffffffffffffffffffffffffffffff1673ffffffffffffffffffffffffffffffffffffffff16815260200190815260200160002060006101000a81548160ff02191690831515021790555083838260050160008873ffffffffffffffffffffffffffffffffffffffff1673ffffffffffffffffffffffffffffffffffffffff1681526020019081526020016000209182610926929190611ac4565b508473ffffffffffffffffffffffffffffffffffffffff16867fbd016c5cd97bad302db11161fe38038164f2c1dba9987c561894bf92f861c0f28686604051610970929190611bd0565b60405180910390a3505050505050565b6060600260008373ffffffffffffffffffffffffffffffffffffffff1673ffffffffffffffffffffffffffffffffffffffff168152602001908152602001600020805480602002602001604051908101604052809291908181526020018280548015610a0b57602002820191906000526020600020905b8154815260200190600101908083116109f7575b50505050509050919050565b60006001600084815260200190815260200160002060040160008373ffffffffffffffffffffffffffffffffffffffff1673ffffffffffffffffffffffffffffffffffffffff16815260200190815260200160002060009054906101000a900460ff16905092915050565b813373ffffffffffffffffffffffffffffffffffffffff166001600083815260200190815260200160002060000160009054906101000a900473ffffffffffffffffffffffffffffffffffffffff1673ffffffffffffffffffffffffffffffffffffffff1614610b27576040517f08c379a0000000000000000000000000000000000000000000000000000000008152600401610b1e90611852565b60405180910390fd5b60006001600085815260200190815260200160002090508060040160008473ffffffffffffffffffffffffffffffffffffffff1673ffffffffffffffffffffffffffffffffffffffff16815260200190815260200160002060009054906101000a900460ff16610bcc576040517f08c379a0000000000000000000000000000000000000000000000000000000008152600401610bc390611c40565b60405180910390fd5b60008160040160008573ffffffffffffffffffffffffffffffffffffffff1673ffffffffffffffffffffffffffffffffffffffff16815260200190815260200160002060006101000a81548160ff0219169083151502179055508060050160008473ffffffffffffffffffffffffffffffffffffffff1673ffffffffffffffffffffffffffffffffffffffff1681526020019081526020016000206000610c739190610f37565b8273ffffffffffffffffffffffffffffffffffffffff16847f125883b94692baebecad9f111ed97ffa626523bbbadc6b0ef85ee1b56b9e52d560405160405180910390a350505050565b60008060008154610ccd90611c8f565b91905081905590506000600160008381526020019081526020016000209050338160000160006101000a81548173ffffffffffffffffffffffffffffffffffffffff021916908373ffffffffffffffffffffffffffffffffffffffff1602179055508686826001019182610d42929190611d3d565b5084816002018190555042816003018190555060018160040160003373ffffffffffffffffffffffffffffffffffffffff1673ffffffffffffffffffffffffffffffffffffffff16815260200190815260200160002060006101000a81548160ff0219169083151502179055506000848490501115610e725783838260050160003373ffffffffffffffffffffffffffffffffffffffff1673ffffffffffffffffffffffffffffffffffffffff1681526020019081526020016000209182610e0b929190611ac4565b5080600601339080600181540180825580915050600190039060005260206000200160009091909190916101000a81548173ffffffffffffffffffffffffffffffffffffffff021916908373ffffffffffffffffffffffffffffffffffffffff1602179055505b600260003373ffffffffffffffffffffffffffffffffffffffff1673ffffffffffffffffffffffffffffffffffffffff1681526020019081526020016000208290806001815401808255809150506001900390600052602060002001600090919091909150553373ffffffffffffffffffffffffffffffffffffffff16827fea656bb8f78d941864e2aa69ef1e50d4f6e9dd33c01007103baef3119ac52d7089898942604051610f259493929190611e3a565b60405180910390a35095945050505050565b508054610f43906117d5565b6000825580601f10610f555750610f74565b601f016020900490600052602060002090810190610f739190610f77565b5b50565b5b80821115610f90576000816000905550600101610f78565b5090565b600080fd5b600080fd5b6000819050919050565b610fb181610f9e565b8114610fbc57600080fd5b50565b600081359050610fce81610fa8565b92915050565b6000819050919050565b610fe781610fd4565b8114610ff257600080fd5b50565b60008135905061100481610fde565b92915050565b6000806040838503121561102157611020610f94565b5b600061102f85828601610fbf565b925050602061104085828601610ff5565b9150509250929050565b60008115159050919050565b61105f8161104a565b82525050565b600060208201905061107a6000830184611056565b92915050565b61108981610f9e565b82525050565b60006020820190506110a46000830184611080565b92915050565b6000602082840312156110c0576110bf610f94565b5b60006110ce84828501610fbf565b91505092915050565b600081519050919050565b600082825260208201905092915050565b6000819050602082019050919050565b600073ffffffffffffffffffffffffffffffffffffffff82169050919050565b600061112e82611103565b9050919050565b61113e81611123565b82525050565b60006111508383611135565b60208301905092915050565b6000602082019050919050565b6000611174826110d7565b61117e81856110e2565b9350611189836110f3565b8060005b838110156111ba5781516111a18882611144565b97506111ac8361115c565b92505060018101905061118d565b5085935050505092915050565b600060208201905081810360008301526111e18184611169565b905092915050565b6111f281611123565b81146111fd57600080fd5b50565b60008135905061120f816111e9565b92915050565b6000806040838503121561122c5761122b610f94565b5b600061123a85828601610fbf565b925050602061124b85828601611200565b9150509250929050565b600081519050919050565b600082825260208201905092915050565b60005b8381101561128f578082015181840152602081019050611274565b60008484015250505050565b6000601f19601f8301169050919050565b60006112b782611255565b6112c18185611260565b93506112d1818560208601611271565b6112da8161129b565b840191505092915050565b600060208201905081810360008301526112ff81846112ac565b905092915050565b61131081611123565b82525050565b600081519050919050565b600082825260208201905092915050565b600061133d82611316565b6113478185611321565b9350611357818560208601611271565b6113608161129b565b840191505092915050565b61137481610fd4565b82525050565b600060808201905061138f6000830187611307565b81810360208301526113a18186611332565b90506113b0604083018561136b565b6113bd6060830184611080565b95945050505050565b600080fd5b600080fd5b600080fd5b60008083601f8401126113eb576113ea6113c6565b5b8235905067ffffffffffffffff811115611408576114076113cb565b5b602083019150836001820283011115611424576114236113d0565b5b9250929050565b6000806000806060858703121561144557611444610f94565b5b600061145387828801610fbf565b945050602061146487828801611200565b935050604085013567ffffffffffffffff81111561148557611484610f99565b5b611491878288016113d5565b925092505092959194509250565b6000602082840312156114b5576114b4610f94565b5b60006114c384828501611200565b91505092915050565b600081519050919050565b600082825260208201905092915050565b6000819050602082019050919050565b61150181610f9e565b82525050565b600061151383836114f8565b60208301905092915050565b6000602082019050919050565b6000611537826114cc565b61154181856114d7565b935061154c836114e8565b8060005b8381101561157d5781516115648882611507565b975061156f8361151f565b925050600181019050611550565b5085935050505092915050565b600060208201905081810360008301526115a4818461152c565b905092915050565b60008083601f8401126115c2576115c16113c6565b5b8235905067ffffffffffffffff8111156115df576115de6113cb565b5b6020830191508360018202830111156115fb576115fa6113d0565b5b9250929050565b60008060008060006060868803121561161e5761161d610f94565b5b600086013567ffffffffffffffff81111561163c5761163b610f99565b5b611648888289016115ac565b9550955050602061165b88828901610ff5565b935050604086013567ffffffffffffffff81111561167c5761167b610f99565b5b611688888289016113d5565b92509250509295509295909350565b60006060820190506116ac6000830186611056565b6116b9602083018561136b565b6116c66040830184611080565b949350505050565b7f4e6f7420616c6c6f776564000000000000000000000000000000000000000000600082015250565b6000611704600b83611321565b915061170f826116ce565b602082019050919050565b60006020820190508181036000830152611733816116f7565b9050919050565b7f5573657220686173206e6f206163636573730000000000000000000000000000600082015250565b6000611770601283611321565b915061177b8261173a565b602082019050919050565b6000602082019050818103600083015261179f81611763565b9050919050565b7f4e487b7100000000000000000000000000000000000000000000000000000000600052602260045260246000fd5b600060028204905060018216806117ed57607f821691505b602082108103611800576117ff6117a6565b5b50919050565b7f4e6f7420646f63756d656e74206f776e65720000000000000000000000000000600082015250565b600061183c601283611321565b915061184782611806565b602082019050919050565b6000602082019050818103600083015261186b8161182f565b9050919050565b7f4261642061646472657373000000000000000000000000000000000000000000600082015250565b60006118a8600b83611321565b91506118b382611872565b602082019050919050565b600060208201905081810360008301526118d78161189b565b9050919050565b600082905092915050565b7f4e487b7100000000000000000000000000000000000000000000000000000000600052604160045260246000fd5b60008190508160005260206000209050919050565b60006020601f8301049050919050565b600082821b905092915050565b60006008830261197a7fffffffffffffffffffffffffffffffffffffffffffffffffffffffffffffffff8261193d565b611984868361193d565b95508019841693508086168417925050509392505050565b6000819050919050565b60006119c16119bc6119b784610f9e565b61199c565b610f9e565b9050919050565b6000819050919050565b6119db836119a6565b6119ef6119e7826119c8565b84845461194a565b825550505050565b600090565b611a046119f7565b611a0f8184846119d2565b505050565b5b81811015611a3357611a286000826119fc565b600181019050611a15565b5050565b601f821115611a7857611a4981611918565b611a528461192d565b81016020851015611a61578190505b611a75611a6d8561192d565b830182611a14565b50505b505050565b600082821c905092915050565b6000611a9b60001984600802611a7d565b1980831691505092915050565b6000611ab48383611a8a565b9150826002028217905092915050565b611ace83836118de565b67ffffffffffffffff811115611ae757611ae66118e9565b5b611af182546117d5565b611afc828285611a37565b6000601f831160018114611b2b5760008415611b19578287013590505b611b238582611aa8565b865550611b8b565b601f198416611b3986611918565b60005b82811015611b6157848901358255600182019150602085019450602081019050611b3c565b86831015611b7e5784890135611b7a601f891682611a8a565b8355505b6001600288020188555050505b50505050505050565b82818337600083830152505050565b6000611baf8385611260565b9350611bbc838584611b94565b611bc58361129b565b840190509392505050565b60006020820190508181036000830152611beb818486611ba3565b90509392505050565b7f4e6f206163636573730000000000000000000000000000000000000000000000600082015250565b6000611c2a600983611321565b9150611c3582611bf4565b602082019050919050565b60006020820190508181036000830152611c5981611c1d565b9050919050565b7f4e487b7100000000000000000000000000000000000000000000000000000000600052601160045260246000fd5b6000611c9a82610f9e565b91507fffffffffffffffffffffffffffffffffffffffffffffffffffffffffffffffff8203611ccc57611ccb611c60565b5b600182019050919050565b600082905092915050565b60008190508160005260206000209050919050565b601f821115611d3857611d0981611ce2565b611d128461192d565b81016020851015611d21578190505b611d35611d2d8561192d565b830182611a14565b50505b505050565b611d478383611cd7565b67ffffffffffffffff811115611d6057611d5f6118e9565b5b611d6a82546117d5565b611d75828285611cf7565b6000601f831160018114611da45760008415611d92578287013590505b611d9c8582611aa8565b865550611e04565b601f198416611db286611ce2565b60005b82811015611dda57848901358255600182019150602085019450602081019050611db5565b86831015611df75784890135611df3601f891682611a8a565b8355505b6001600288020188555050505b50505050505050565b6000611e198385611321565b9350611e26838584611b94565b611e2f8361129b565b840190509392505050565b60006060820190508181036000830152611e55818688611e0d565b9050611e64602083018561136b565b611e716040830184611080565b9594505050505056fea2646970667358221220a47d08ab9d5f484716ee95ce4e3115318daef3b5c9348033c9d0805b439bf1d564736f6c63430008180033",
  "linkReferences": {},
  "deployedLinkReferences": {}
}